:020000041000EA
:1000000000B5324B212058609868022188439860DF
:10001000D860186158612E4B002199600221596106
:100020000121F02299502B49196001219960352056
:1000300000F044F80222904214D00621196600F024
:1000400034F8196E01211966002018661A6600F04E
:100050002CF8196E196E196E052000F02FF8012189
:100060000842F9D1002199601B49196000215960AB
:100070001A491B48016001219960EB211966A021F2
:10008000196600F012F800219960164914480160C1
:100090000121996001BC002800D000471248134993
:1000A000086003C880F30888084703B5996A0420EC
:1000B0000142FBD001200142F8D103BD02B5186610
:1000C0001866FFF7F2FF186E186E02BD00000240BE
:1000D000000000180000070000035F00212200005C
:1000E000F4000018222000A00001001008ED00E03C
:1000F00000000000000000000000000074B24E7A12
:1001000000200420F7010010CB010010CD010010E9
:10011000C9010010C9010010C9010010C901001077
:10012000C9010010C9010010C9010010CF01001061
:10013000C9010010C9010010D1010010D301001045
:10014000C1010010C1010010C1010010C101001067
:10015000C1010010C1010010C1010010C101001057
:10016000C1010010C1010010C1010010C101001047
:10017000C1010010C1010010C1010010C101001037
:10018000C1010010C1010010C1010010C101001027
:10019000C1010010C1010010C1010010C101001017
:1001A000C1010010C1010010C1010010C101001007
:1001B000C1010010C1010010C1010010C1010010F7
:1001C000EFF30580103800BE00BE00BE00BE00BECA
:1001D00000BE00BEF2EB887170050110940501109D
:1001E0003802001090A31AE71E481F49086006C88D
:1001F00081F3088810471D480068002801D019487D
:10020000F3E70DA40ECC002902D000F012F8F9E7B4
:100210001749184A002000E001C19142FCD116495B
:100220008847164988471649884700BEFDE701C937
:1002300001C29A42FBD3704794050110C000002010
:10024000600C002034110110000004200000042084
:1002500034110110001004200010042000000000E0
:10026000704700000000000008ED00E0000000D032
:10027000600C0020681F0020F15000104D1300108A
:10028000B1500010F8B5C04606480749091A8B104E
:10029000C90FC91810B5491003D0044B002B00D06A
:1002A000984710BD600C0020600C0020000000008A
:1002B000054B10B5002B03D00449054800E000BFF2
:1002C000FFF7E2FF10BDC04600000000F01B002059
:1002D000B4C6001082B000226B46D91D06E08369C7
:1002E000DB06FCD403680B7001320131002AF6D022
:1002F0006B46D87902B0704730B583B01439CCB2B0
:100300000C2C03D8A100144C61588F46002003B078
:1003100030BD1C78114801784D1C057010484454BC
:100320000133013AD2B2002AF3D10120EFE70B4B9F
:1003300000221A700120EAE72423C15C074B1B78D6
:10034000074A490807480024009405F079F901207C
:10035000DDE70120DBE7C046B8C600105E1F0020C5
:10036000081000207005002010B5282906D0292982
:1003700006D1100002F07AF8012010BD0120FCE740
:100380000020FAE7F0B591B005000C000B78242BA3
:1003900076D12A2120000AF057FC071E70D0631C7A
:1003A000002602E01A7856400133BB42FAD3781C8B
:1003B000102200210AF03CFCB04261D100233B70C6
:1003C0005A49062220000AF0A1FC002808D058490A
:1003D000062220000AF09AFC002812D1012600E033
:1003E00001265449062220000AF090FC00280AD079
:1003F0005149062220000AF089FC00280AD1013068
:1004000002E00026EDE70120002E1BD1002837D0A6
:1004100000230DE00020F7E701342378002B01D002
:100420002C2BF9D1002B02D00023237001341300B0
:100430002278002A08D00E2B06DC5A1C9B0001A94A
:100440005C50EAE70023F3E7092B19DD002E60D0AA
:10045000029C20000AF02AFD052813D8039837498A
:100460000AF0E0FC002803D108980378002B27D17C
:1004700000232B760A9C20000AF018FD062826D0BF
:1004800011B0F0BD6E460023B370237833706378EB
:100490007370684608F0BCFFA871A3783370E378E6
:1004A0007370684608F0B4FFE8712379337063799C
:1004B0007370684608F0ACFF287201236B72CDE7B9
:1004C00008F0A0FF2861696101232B76D2E76E4610
:1004D0000023B3702378337063787370684608F034
:1004E00097FFE870A3783370E3787370684608F07C
:1004F0008FFFA8702379337063797370684608F0B2
:1005000087FFFA23DB009C466044288001232B717F
:10051000B6E70028B4D008980378002BB0D008F0D4
:1005200077FF286224230122EA54A9E7ECC60010D1
:10053000F4C60010FCC6001004C700100CC7001061
:10054000F0B589B004000E001500052A0AD9437AD7
:10055000002B02D00379002B06D1334A290030004A
:1005600004F062FD09B0F0BD03888178C0782F4A9D
:1005700003AF019000911421380004F055FD0A22C8
:10058000002138000AF054FB294BC218294B9A422B
:1005900029D9294A294BC318934232D9284BC31869
:1005A000934230D9274BC31893422ED9063A264B93
:1005B000C31893422BD3254BC318934229D31E4A09
:1005C000234BC318934226D9224BC318934224D9F4
:1005D000214BC318934222D9204B9C466044904241
:1005E0001FD9012200E00222A3799B18172B00DDFE
:1005F000183BE1791A4A00912900300004F014FDFB
:10060000B0E70222F0E70222EEE70222ECE7022244
:10061000EAE70222E8E70222E6E70222E4E7022212
:10062000E2E70222E0E7C04620C7001010C7001032
:1006300016DACAFEB6020000BE02000008B3CAFE07
:10064000FA8BCAFEEB64CAFED53DCAFEC616CAFEC8
:10065000B8EFC9FEA9C8C9FE9AA1C9FE8B7AC9FE26
:1006600028C7001010B50100024B1800FFF78AFEE2
:1006700010BDC046E00D002070B50500094C2000FB
:1006800007F01BFF084B0C221E21200008F068FA1F
:100690002B001C221E21200008F062FA200007F027
:1006A00018FF70BD601E002034C70010F0B5DE4694
:1006B00057464646C0B588B08A4601921F001B4A7D
:1006C00004AD03001021280004F0AEFC28000AF05D
:1006D000EDFB804683461649164808F08DFAC71987
:1006E00000241BE04346013B1B1B03AE002232806B
:1006F00004AAD35C33700F4D3100280008F07CFA57
:10070000210079435346591A89B26B469A88091ACF
:1007100089B23300280008F023FA01345C45E1DB9C
:1007200008B0E0BCBB46B246A846F0BD40C70010CA
:10073000F4CB0010601E0020F0B5D6464F4646466A
:10074000C0B590B0041C15000393234A06AF0B00FC
:100750000821380004F068FC08AE201C03F076FA8B
:10076000009001913A002021300004F05DFC30003F
:100770000AF09CFB07001949194808F03DFA431C90
:100780009846013F03E04E460136AD1B013F002F66
:100790001BDB08ABDC5D05AE002333803470104BEF
:1007A00031009A46180008F027FA81466B469A896C
:1007B000291A89B23300504608F0D2F9303CE4B22D
:1007C000092CE0D84346ED1AE0E710B0E0BCBA4689
:1007D000B146A846F0BDC04644C70010F4CB001097
:1007E000601E0020F0B5C64600B58AB0B54807F0D7
:1007F00064FEB54B1B68012B65D0022B00D12AE1AA
:10080000B249B04808F0EAF9B14B1868B14B1B7E09
:10081000002B08D0AF4B18695969AF4AAF4B02F0B3
:10082000F2FC02F07FFD022320223721FFF73EFF7A
:10083000AB4DA44C2900200008F0D0F9A94B186852
:1008400001230C224B21FFF731FFA74B0C224D2136
:10085000200008F085F9A54B1868FA21890002F0FC
:100860003FFA012320224B21FFF720FFA04920005F
:1008700008F0B4F99F4B20224D21200008F070F9B8
:100880002900200008F0AAF906AE924D0A22310094
:100890002800FFF755FE3100200008F0ADF9802157
:1008A000091A89B233000C22200008F059F92423D8
:1008B000EB5C002B00D0EEE0824807F00AFE0AB0A5
:1008C00080BCB846F0BD7F4C7F330022032120005E
:1008D00008F030FA032301220321200008F032FA45
:1008E000072301221C21200008F02CFA03230122F7
:1008F0003521200008F026FA032301224E21200092
:1009000008F020FA032301226721200008F01AFAD8
:10091000032301227F21200008F014FA764B774A46
:100920001168186803F04BF9754903F032F903F0C8
:1009300015FA041C734B1860002103F071F90028AC
:1009400073D10021201C03F073F9002874D1211CFD
:100950006D4803F014F9051C201C03F06FF984B2F4
:10096000281C03F06BF981B256480423009323003E
:100970000A2207F04FFD5A4F524C3900200008F070
:100980002DF9624B1B68624A02AD1021280004F069
:100990004BFB2B0020221421200008F0E1F8290055
:1009A000200008F029F905005149200008F016F947
:1009B000584B1635A9B22022200008F0D1F84E4B32
:1009C0004E4A1168186803F0FAF8534903F0E1F849
:1009D000524D06AE03F03AF9009001912A00102121
:1009E000300004F021FB4E4B98461900200008F01F
:1009F00003F905008021091A89B24346202220000C
:100A000008F0AEF83900200008F0E8F831002000C6
:100A100008F0F2F82D18ADB27E21491B89B23300DF
:100A20002022200008F09CF846E7264804230A22EA
:100A30001C2108F087F99EE760004008314B1860E0
:100A400003F0FCF883B21F480422009206321C21F6
:100A500007F0E0FC8FE733491A4C200008F0BEF89D
:100A6000254B18680E2352220221FFF765FE2E4BFC
:100A70000E225621200008F073F8204B18681E2320
:100A800052220221FFF758FE284B1E225621200039
:100A900008F066F810E70F4B1B6A1D4A02AD0821EB
:100AA000280004F0C1FA074C2900200008F0A4F83F
:100AB0008021091A89B22B002022200008F050F86A
:100AC000FAE6C046601E0020B019002068DF001062
:100AD000041F0020E00D00206F1283C0CAA1FD3F5B
:100AE00044EE0010FC14002064C700104C1C0020D1
:100AF00080FD001068C7001008150020F4140020C5
:100B000000002042401C00200000E0419819002015
:100B100040C700104CC7001000007A4454C70010B2
:100B20005CC7001078E1001060C700100CC700100F
:100B300010B5040000E001342378202BFBD0CD4910
:100B40000F2220000AF0E2F8002809D0CA490F223B
:100B500020000AF0DBF8002815D121000F3107E052
:100B600020000F3008F054FCC44B18600AE001313B
:100B70000B78202BFBD0C24C1F2220000AF0FAF881
:100B80000023E37710BDBF490D2220000AF0BEF814
:100B900000280ED121000D3100E001310B78202B0F
:100BA000FBD0B94C1F2220000AF0E4F80023E377C1
:100BB000E8E7B649172220000AF0A8F8002810D06C
:100BC000B349182220000AF0A1F8002810D0B1493A
:100BD000122220000AF09AF800281CD121001231BC
:100BE0000EE02000173008F013FCAB4B1860C9E78B
:100BF0002000183008F00CFCA84B1860C2E7013147
:100C00000B78202BFBD0A64C1F2220000AF0B2F854
:100C10000023E377B6E7A3490C2220000AF076F818
:100C2000002800D18AE0A049082220000AF06EF8CE
:100C3000002800D18BE09D490D2220000AF066F8C3
:100C4000002800D18AE09A490D2220000AF05EF8BF
:100C5000002800D189E097490C2220000AF056F8BC
:100C6000002800D188E09449122220000AF04EF8B2
:100C7000002800D189E09149122220000AF046F8AC
:100C8000002800D188E08E490D2220000AF03EF8AD
:100C9000002800D187E08B490D2220000AF036F8A9
:100CA000002800D186E088490E2220000AF02EF8A4
:100CB000002800D185E085490A2220000AF026F8A4
:100CC000002800D184E08249102220000AF01EF89A
:100CD000002800D183E07F490A2220000AF016F89C
:100CE000002800D182E07C49082220000AF00EF89A
:100CF000002800D181E079490C2220000AF006F892
:100D0000002800D180E076491022200009F0FEFF83
:100D1000002800D181E073491522200009F0F6FF78
:100D2000002800D180E070490D22200009F0EEFF7C
:100D3000002800D000E121000D317DE020000C30C2
:100D400008F060FB02F056FB684B18601AE72000C1
:100D5000083008F05DFB664B186013E720000D308B
:100D600008F056FB634B18600CE720000D3008F0CC
:100D70004FFB614B186005E720000C3008F042FB88
:100D800002F038FB5D4B1860FCE62000123008F0E2
:100D90003FFB5B4B1860F5E62000123008F038FB93
:100DA000584B1860EEE620000D3008F031FB564B32
:100DB0001860E7E620000D3008F02AFB534B18605E
:100DC000E0E620000E3008F023FB514B1860D9E616
:100DD00020000A3008F01CFB4E4B1860D2E62000C1
:100DE000103008F015FB4C4B1860CBE620000A30A1
:100DF00008F00EFB494B1860C4E62000083008F0EC
:100E000007FB474B1860BDE620000C3008F0FAFAEB
:100E100002F0F0FA434B1860B4E62000103008F0FE
:100E2000F7FA414B1860ADE62000153008F0F0FAF3
:100E30003E4B1860A6E601310B78202BFBD03C4BD3
:100E40001F221C00180009F095FF0023E3773949A1
:100E5000200009F0E7FF002805D1D0231B068022DF
:100E600092045A618EE6D0231B06802292049A6176
:100E700088E6C0466CC700107CC70010F81E002032
:100E8000081F00208CC70010301F00209CC70010D6
:100E9000B4C70010D0C70010EC140020E8140020E4
:100EA000C8140020E4C70010F4C7001000C80010E8
:100EB00010C8001020C8001030C8001044C800102E
:100EC00058C8001068C8001078C8001088C8001002
:100ED00094C80010A8C80010B4C80010C0C8001002
:100EE000D0C80010E4C80010FCC80010F4140020A2
:100EF00004150020FC140020001500200815002017
:100F0000F0140020F81400209C190020AC190020D7
:100F1000A8190020A4190020A0190020081C0020F6
:100F2000FC1E00202C1F0020001F0020281F002076
:100F3000B81900200CC90010A3490B22200009F0A9
:100F4000E5FE002800D196E0A0490D22200009F01E
:100F5000DDFE002800D195E09D490B22200009F01C
:100F6000D5FE002800D194E09A490B22200009F018
:100F7000CDFE002800D193E097491022200009F00F
:100F8000C5FE002800D192E094490922200009F012
:100F9000BDFE002800D191E091491422200009F003
:100FA000B5FE002800D190E08E490922200009F00A
:100FB000ADFE002800D18FE08B490C22200009F003
:100FC000A5FE002800D18EE088490E22200009F0FD
:100FD0009DFE002800D18DE085490F22200009F0F8
:100FE00095FE002800D18CE082491422200009F0EF
:100FF0008DFE002800D18BE07F491322200009F0EC
:1010000085FE002800D18AE07C490C22200009F0EE
:101010007DFE002800D189E079490F22200009F0E7
:1010200075FE002800D188E076490B22200009F0E7
:101030006DFE002800D187E073490622200009F0E8
:1010400065FE002800D186E070490C22200009F0DE
:101050005DFE002800D184E06D491222200009F0D5
:1010600055FE002800D083E02000123008F0D0F9AF
:10107000684B186086E520000B3008F0C9F9664B14
:1010800018607FE520000D3008F0C2F9634B18604E
:1010900078E520000B3008F0BBF9614B186071E572
:1010A00020000B3008F0B4F95E4B18606AE52000B0
:1010B000103008F0ADF95C4B186063E52000093092
:1010C00008F0A6F9594B18605CE52000143008F0D0
:1010D0009FF9574B186055E52000093008F098F942
:1010E000544B18604EE520000C3008F091F9524B3B
:1010F000186047E520000E3008F08AF94F4B186061
:1011000040E520000F3008F083F94D4B186039E5B9
:101110002000143008F07CF94A4B186032E52000BA
:10112000133008F075F9484B18602BE520000C309F
:1011300008F06EF9454B186024E520000F3008F0E8
:1011400067F9434B18601DE520000B3008F060F98B
:10115000404B186016E5A01D08F05AF93E4B186088
:1011600010E520000C3008F053F93C4B186009E5FD
:101170003B491E22200009F0C9FD002800D001E5EE
:1011800001F068FA002915D0FA229200002301F03C
:101190000DFE0400334B1B68012B11D16422324B2E
:1011A0001B68E31A934200D2ECE4FFF71BFB2E4BC3
:1011B0001C60E7E4FA21890001F0BAFD0400E9E7C8
:1011C000FA225200EBE7C04620C900102CC90010DB
:1011D0003CC9001048C9001054C9001068C900106B
:1011E00074C900108CC9001098C90010A8C900105B
:1011F000B8C90010C8C90010E0C90010F4C9001037
:1012000004CA001014CA001020CA001028CA001016
:1012100038CA00104C1C00201C1C0020201C002080
:10122000241C0020141C0020181C0020101C00206E
:10123000281C00200C1C00202C1C0020441C00201A
:10124000481C0020E81B0020EC1B0020501F002041
:10125000581F0020541F0020041F00209819002050
:101260004CCA0010B0190020E41B002010B5152056
:1012700000F08AF9D024240680239B03A362002275
:101280000121152000F064F9192000F07DF9802378
:101290009B046362A361E1214902224801F082FAC2
:1012A0000221102000F03AF90221112000F036F955
:1012B0001D481E4904F09AF90321042000F02EF97C
:1012C0000321052000F02AF900220121042000F06A
:1012D0003FF900220121052000F03AF9144B154A8C
:1012E0001549164C200007F0FDF8200008F01CF806
:1012F0000021200008F01FF8FF21200008F022F84C
:101300000F49200007F06AFC0E48FFF7B5F90021ED
:10131000002006F085FB002800D010BD0A48FFF72A
:10132000ABF9FAE70040034070050020A0860100F9
:1013300069030010F9020010A4000110601E0020D3
:101340007CF900106CCA001078CA001070B5FFF765
:101350008DFF01200021404205F0A2FCD0231B0696
:101360005C6880239B031C4025006A1E9541EDB2FA
:1013700001F070F9002912D0FA229200002301F046
:1013800015FD002C28D1324B1B78002B0CD0314B93
:101390001860314B00221A702D4B1D703BE0FA2172
:1013A000890001F0C5FCECE72B4B1B78002BF3D137
:1013B000284B1B68C31AFA22D2009342ECD9264B61
:1013C00001221A702548FFF757F9642001F04EF802
:1013D0000021002001F064FB002CDDD01C4B1B78A9
:1013E000002BD9D11C4B1B78002BD5D1194B1B6876
:1013F000C01A3228D0D91A4A136801331360022B5D
:1014000002DD130000221A60FFF7ECF9C4E7154B68
:101410001B78002B14D1144B9B69DB0699D412481E
:10142000FEF758FF0A28F2D00D28F0D00D4B1B789C
:101430007E2BF0D80B4A591C11700C4AD054EAE7A5
:101440000A480024C454FFF70DF9064B1C70E2E76C
:10145000E8040020081100205F1F002088CA001047
:10146000B01900205D1F002000400340880E0020BE
:1014700010B588B002000449684603F0BFFD684615
:10148000FFF7FAF808B010BD98CA001010B588B080
:1014900002000449684603F0B1FD6846FFF7ECF826
:1014A00008B010BDA8CA001010B500230022032107
:1014B00006F042F90148FFF7DFF810BDB8CA001086
:1014C00070B51349FF2206F025F90500002404E059
:1014D000104B1B78002B12D10134AC4217D20C4BAD
:1014E0001B5D0A2BF4D00D2BF2D00A4A12787E2A0B
:1014F000F2D80849501C087007498B54ECE706489D
:101500000026C654FFF714FB024B1E70E4E770BDC3
:10151000080F00205C1F0020080E002010B583007B
:10152000084A9A1814684022544080322240064CDF
:10153000A44663441A60C000044B9C46604441606A
:1015400010BDC04604C0014004D00140004001402D
:1015500080000C4B9C46604400290ED00823002AD2
:101560000DD004221343026853400C221340802202
:10157000520194466044036070470023EFE7002265
:10158000F0E7C04604C0014010B501238340D022DB
:101590001206936293610521FFF7C0FF10BD0000A2
:1015A0000FB400B583B0084803F0AAFE049B002BDB
:1015B00007D005A90191180003F0B2FE034803F01B
:1015C0009FFE012003F056FDC4CA0010D4CA0010CB
:1015D000EFF3108072B6034B1B68002BFBD0BFF3F8
:1015E0005F8F70472C0100D0BFF35F8F024B00224A
:1015F0001A6080F3108870472C0100D0F8B50600FF
:101600000C001500FFF7E4FFE308F718F15C072270
:101610002240012393400B4205D1DBB20B433B70C8
:10162000FFF7E2FFF8BD21002800FFF7B9FFF0B592
:1016300083B00600019114001F00FFF7C9FF00E00E
:101640000134BC420CD8E308F518F35C07212140B3
:1016500001228A401A42F3D1D2B21A432A7001E021
:1016600001246442FFF7C0FF002C02DB200003B01E
:10167000F0BD019B002BF9D00898FFF791FF000007
:10168000054A1078431CDBB21370172B02D91300E4
:1016900010221A707047C046E904002010B582B0CD
:1016A0000100054C054B00931F2318222000FFF773
:1016B000BEFF02B010BDC04668190020D8CA001095
:1016C000002307E0054A9A189200BFF35F8F0021BC
:1016D000116001331F2BF5D97047C046400000341C
:1016E000074B9B68103080001950BFF35F8FBFF32A
:1016F0005F8F044B0021196082F310887047C04649
:1017000000ED00E0240100D00048704700E400E054
:1017100010B5FFF7F9FF002302E0034A04C00133CC
:10172000072BFAD910BDC0468080808010B5038891
:10173000DA0A1C2A05D15B055B1502335B00C01871
:1017400010BD034B034A8E210348490003F0B4FC4B
:10175000F4CA0010A0D800100CCB001010B5091A64
:101760000B1F0A4A88180A4A904208D8C90706D4AB
:101770005B105B055B0D0748184380B210BD064B3C
:10178000064A87210648490003F096FCFC07000042
:10179000FE0F000000E0FFFF58CB001094D80010AF
:1017A0000CCB001010B5091A04394A08090B08D1EE
:1017B0004905490D064B0B430380064B13434380F9
:1017C00010BD054B054A8B210548490003F074FC08
:1017D00000F0FFFF00F8FFFF88CB001070D800106A
:1017E0000CCB001001238340034A10681840431EAD
:1017F0009841C0B27047C04600E100E0002A05D021
:10180000044BC0225200995019607047014A80234E
:10181000D150FAE700E100E010B50A001F230340B1
:10182000012199404009FFF7E9FF10BD024B9B6879
:1018300010308000C058704700ED00E070B5040023
:101840000D00EFF3108672B60C4B1B68002BFBD01B
:10185000BFF35F8F2000FFF7E9FF094B984201D0EB
:10186000A84205D1320029002000FFF739FF70BDE2
:10187000044B054A0548ED2103F01EFC240100D06D
:10188000C101001098CB0010C8D800100CCB00107C
:10189000F0B5DE4657464E464546E0B589B081462E
:1018A00001911500EFF3108B72B66F4B1B68002B84
:1018B000FBD0BFF35F8F6D4B00269E57002E40DBA1
:1018C0007400A419A4006A4824180622A256674B83
:1018D0001A70684B9A684B4610339B00D358984651
:1018E0001B1A2F2B3BD9644B984531D105AF634B65
:1018F0003B80634973009A46981980005C4B984678
:1019000040440230FFF72AFF78805E4BBB80FF2304
:10191000BB71FD71019B0793330053449B0043440B
:1019200007CF07C301231C43A0465A4641464846F9
:10193000FFF7D6FE09B0F0BCBB46B246A946A046AA
:10194000F0BD514B514ABE215148490003F0B4FB50
:10195000504B4E4A84214E48FF3103F0ADFB01232A
:1019600042469A439246101A0C2101F0E1F90029EF
:101970000FD153460027DA79AA4212D906215956C7
:1019800000290DDB4A005218920039491F008B18BC
:10199000F1E7414B3D4ACA213D48490003F08CFB29
:1019A0001F00002F2ED005AB3C4A1A80813A5A8086
:1019B0000623FB560293002B17DA394805AB9A46EB
:1019C0009880029A9A71DD71019A0792381D210060
:1019D000FFF7C4FEB880BE71254B720092199200C9
:1019E0009B18524613CA13C39FE7381DFFF79EFE8C
:1019F00001007000801980001D4BC0180430FFF7F3
:101A0000ADFEDBE705AF1D4B3B801D497300029324
:101A10009B199B00164A90461A0042440392901C60
:101A2000FFF79CFE7880039A101D5146FFF796FE43
:101A3000B8801C4B52464146521A524153431B0D2B
:101A4000BB71FD71019A0792029B9B199B00434455
:101A500007CF07C3114B52461380813B53800123AC
:101A60001C43A04661E7C046240100D0641F00204B
:101A7000EC04002000ED00E0C101001000A1FFFF18
:101A80001C05002001BDFFFFD0CB0010B0D8001016
:101A90000CCB0010F8CB001020CC00100148000047
:101AA00001BD0000AAAA0000F0B5CE46474680B5A9
:101AB00083B006000D00EFF3108872B64F4B1B6821
:101AC000002BFBD0BFF35F8F4D4B9A68340010346E
:101AD000A300D7584B4B9F4207D0AF4200D18AE0BA
:101AE0000197494BFB1A2F2B09D942463900300088
:101AF000FFF7F6FD03B0C0BCB946B046F0BD3000FC
:101B0000FFF770FE814600213000FFF785FEBFF32E
:101B10005F8FEFF30581002901D08C4211D10123A1
:101B2000019C9C430020A3689D4211D00622A2562E
:101B3000002A0CDB53009B189B00334A2000D4186A
:101B4000F1E7324B324A3348334903F0B5FA20000B
:101B50009D4249D106256557002D2BDB2A4B6A0093
:101B6000521992009B189A68A260DA79E2719B7907
:101B70005BB2A371002B0FDA2848A080224B6A00C9
:101B8000521992009B18264A11789971157049468E
:101B90003000FFF741FEA8E76800401980001A4BAB
:101BA000C0180430FFF7C2FD0100231D1800FFF725
:101BB000D5FDE2E7002912D100280ED0FF23837162
:101BC000184B838016490B78A3710F4A164BA41A41
:101BD000644163431B0D0B70D9E70A4FF2E71349C9
:101BE000201DFFF7DFFDD2E7114B094A912109487B
:101BF000890003F061FA034F77E7C046240100D063
:101C000000ED00E0C1010010EC040020A4CC0010A5
:101C100080D800100CCB00100202000001BD0000B3
:101C2000641F002001BDFFFFAAAA000026050020B6
:101C3000D8CC0010F8B5012202432C4BD31A2F2B1D
:101C400028D8EFF30583002B2AD0EFF3108472B667
:101C5000274909680029FBD0BFF35F8F234D254931
:101C60000600761B76417143090D4DB22249896801
:101C70009B00C958914219D00021032930D81B4B31
:101C80004A00521892009B189B795BB2AB421DD060
:101C90000131F2E7194B1A4A1A481B4903F00CFAB2
:101CA0001A4B174A17481A4903F006FA124A926863
:101CB0001849D150184B1A7882711D70BFF35F8F8D
:101CC0000B4B00221A6084F31088F8BD074B4A00C2
:101CD0005618B6009E19FF27B771104AB280E9E77F
:101CE0000F4B074A07480F4903F0E6F9EC040020C0
:101CF000240100D0AAAA000000ED00E0E0CC001012
:101D000054D800100CCB00107F02000008CD00104A
:101D100082020000C1010010641F002001BDFFFF0E
:101D200014CD001093020000024B9C4661448900D0
:101D3000016070474000003410B50400FFF7A0FCBC
:101D400001002000FFF7F0FFFF232371BFF35F8F37
:101D500010BD10B50400FFF793FC01002000FFF751
:101D6000E3FFFF23237100236371BFF35F8F10BD77
:101D700010B50D4C09E00D4B0D4A0E481A2103F029
:101D80009BF92000FFF7D8FF08340B4B9C4209D287
:101D90002368002BF5D0012BEDD12000FFF7D9FFF0
:101DA0000834F2E710BDC046580C00201CCD0010CE
:101DB00008D900103CCD0010600C0020034B9C465D
:101DC000614489000160BFF35F8F704740000034B9
:101DD00010B504000120FFF761FC01002000FFF7AF
:101DE000EDFF10BD30B5846A151B0B1D9B001B5801
:101DF0001B1B9D4204D3046A01238B40234202D162
:101E0000043189000A5030BD0004084370470000C7
:101E10000A4B1968EFF3108372B60A68002AFCD0E7
:101E2000BFF35F8F054A1268BFF35F8F0021116017
:101E300083F3108840BF0020002170475C1E002003
:101E4000F0B5DE4657464E464546E0B587B0EFF35F
:101E5000058303221A409246AE4B9200D7583B7836
:101E6000534507D10123524693409946AA4B4A460F
:101E70001A6025E1A94BAA4AAA48922103F01CF94D
:101E80007A6973009B19DB009046984443469C682E
:101E9000DD68A54800F0ACFB001BA941002900DA71
:101EA00016E1002D74DB43461B699B469F4B9B4507
:101EB0004FD00823F85E4346598889B2FFF7A4FF44
:101EC00043465969D847029003910299039A0B003F
:101ED000100013435CD013000A00002847DAA41A4C
:101EE0009D41009401954346009C019D9C60DD60EE
:101EF0000021595E002900DAEAE078694B005B189E
:101F0000DB00C3189A68DB68A41A9D41002D00DA33
:101F1000DEE039813D000835844604912A000597AA
:101F2000B346009E019F049B002B2ADB0023D45E56
:101F300063001B19DB0063449C68DD6830003900D6
:101F4000001BA94100291CDB1A000021595E0491E5
:101F5000E9E743465B699B461B695846984700285A
:101F600016D05B461A685B6802920393ADE76E4831
:101F700000F03EFB029B039C1B184C410093019414
:101F8000B1E70499059F5E464346198016809FE09D
:101F9000434600229B5E3B813A69EFF3108372B6A1
:101FA00011680029FCD0BFF35F8F02217A5E4146A1
:101FB0000A807E803A69BFF35F8F0021116083F34E
:101FC000108885E03969EFF3108372B60A68002A39
:101FD000FCD0BFF35F8FB88800B201225242BA80B2
:101FE0003A69BFF35F8F0021116083F31088050009
:101FF000BC461CE0049300229A5E002A0EDB049B80
:102000000021595E4B005B18DB0063449868D96877
:1020100034003D00241A8D41002DEBDA04995D4611
:10202000009B9C4644460D800023E55E2280002DE7
:1020300012DB634658696C006419E4000419A66851
:10204000E7686146083108229A5EAB460491634610
:102050000093A0468446D0E767463EE00023BB716C
:10206000390008310823F85E0EE001246442E517C8
:102070009460D56008243B5F834204D00E8008241E
:102080003B5F138038813000431C29D07C694300BA
:102090001B18DB00E218E65E53881BB2002BE4DB62
:1020A0001100F0E722002B0051461F48FFF79AFE6F
:1020B0001D4800F09DFA241A8D41002D22DC1FD00E
:1020C000194B4A465A630823FE5E002E00DBD7E612
:1020D000BB881BB2002B00DB74E7BB79002BBDD1A2
:1020E0000823FA5E002A0DDB796953009B18DB0098
:1020F000CB189C68DD68631CD4D16B1CD8D0D1E7A9
:10210000002CDDD040BF07B0F0BCBB46B246A946AC
:10211000A046F0BD301C00203C700540D4CD00101E
:1021200034D9001000CE001000400540411E0010C0
:1021300070B504000D0011000126AE4006622800B3
:10214000FFF77CFB01212800FFF766FB024B9C4652
:102150006444266070BDC04638200000F8B5CE4605
:10216000474680B50600894690461F00C160FFF7CC
:1021700087FA154B9C4660448000306143463370BB
:10218000BBB27381D02212061278727001225242C1
:102190003281B2809B187380002406E0621E73694E
:1021A00065002D19ED005A530134BC42F6D3074B9C
:1021B00042469200D650064A41464846FFF7B8FFCD
:1021C000C0BCB946B046F8BD40000034301C002009
:1021D000411E001010B5064B1B69002B01D00448AE
:1021E00010BD044B044A0548652102F065FFC04656
:1021F0003405002044CE00101CD9001000CE001081
:10220000F8B504000569EFF3108072B6296800295B
:10221000FCD0BFF35F8F0221665E6569710089198A
:10222000C9006D18002E02DB0027E95F618021697B
:10223000BFF35F8F00270F6080F31088002E2CDB28
:102240000699296107996961AA60EB606B8801337F
:102250005B04590C002B00D1012169803000FFF78D
:10226000D3FD2169EFF3108372B60A68002AFCD00F
:10227000BFF35F8FA2882A80A6802269BFF35F8F99
:102280000021116083F31088E368217801228A40DD
:1022900003498C4663441A60F8BD01204042FBE7C5
:1022A0003C20000070B582B0060014001D0008AB91
:1022B0001B78002B07D100F0CDF922002B00121A59
:1022C0008B41002B0ADB079B0193069B00932200A6
:1022D0002B003000FFF794FF02B070BD0020FBE739
:1022E000F0B5C64600B584B00500884616001F004C
:1022F0000AAB1C78FFF76EFF0294019700962A0044
:102300004346FFF7CFFF04B080BCB846F0BD0000E5
:1023100030B504000A1443899A422EDA406953000A
:102320009B18DB00C3182569EFF3108272B628688A
:102330000028FCD0BFF35F8F588885B20904090CD0
:10234000884212D000202369BFF35F8F00211960FB
:1023500082F31088002811D0E368217801228A4096
:1023600007498C4663441A6008E00649294389B24C
:1023700059800123A3710120E5E7002030BDC0464C
:102380003C2000000080FFFF10B50400FFF722FF93
:102390002100FFF7BDFF10BDF0B583B006000F00B0
:1023A000EFF30583002B1AD106246442E517A41924
:1023B0007D418D4202D803D1844201D900240025F9
:1023C00000F048F922002B00121A8B41002B0BDC85
:1023D00008D03000390000F04FF903B0F0BD1648C6
:1023E000FFF7DEF8002AF4D0144A002300932000FF
:1023F0002900FFF775FF002813DAEAE7104B196888
:10240000EFF3108372B60A68002AFCD0BFF35F8F27
:102410000B4A1268BFF35F8F0021116083F31088AD
:1024200020BF084B5B6A9D42E8D80649896AA142F1
:10243000CFD29D42CDD1E1E768CE0010111E001031
:102440005C1E00200040054070B504000D0000F047
:1024500001F900196941002902DBFFF79DFF70BDFA
:10246000012040420049F8E7FFFFFF7F10B5FA2244
:1024700092000023002101F065FBFFF7E5FF10BD8E
:10248000F0B5CE46474680B583B005000C00EFF3AB
:102490000583002B15D03F4B5B6A8B4209D33D4A25
:1024A000926A82420BD28B4201D0012002E00020CE
:1024B00000E0002003B0C0BCB946B046F0BD01202A
:1024C000F8E7FFF787FEC3689946037898462E0021
:1024D0002700484600F08CF802000B00B61A9F4116
:1024E000434604339B004A469B581B1A0022BA42BB
:1024F0000FDC0CD020BF274B5B6A9C422DD8254AAD
:10250000926AAA422BD29C4225D00120D2E7B34244
:10251000F0D9214A0023009328002100FFF7E0FEB4
:1025200000281EDD1B4B5B6A9C4205D8194A926A43
:10253000AA4202D29C4200D120BFFFF725FF154BD3
:102540005B6A9C4221D8134A926AAA421FD29C42DB
:1025500019D00120AEE70020ACE70020AAE7012057
:10256000A8E70C4B5B6A9C4209D80A4A926AAA42C5
:1025700007D29C4201D001209CE700209AE700206E
:1025800098E7012096E7002094E7002092E70120D9
:1025900090E7C04600400540111E001000487047FB
:1025A0000040054010B50B4B1B69002B04D00A48B6
:1025B0000A21FFF7B9FB10BDFFF7F0FF040003216C
:1025C00000F00CF80348102303222100FFF7C6FD9A
:1025D000EDE7C046340500205C1E002010B5024A1D
:1025E0000248FFF70BF810BDB8CE00106C190020A0
:1025F0000200436A906A1900536A9942FAD17047FF
:10260000416A00E0416A9942FCD300E0416A994284
:1026100002D1816A9142F9D37047F0B5C64600B540
:10262000804614001D00FFF7E3FF06000F002200A4
:102630002B0092197B41994202D804D1904202D9D1
:1026400001225242D3174046FFF7DAFF80BCB8465A
:10265000F0BD000010B50248FFF7CAFF10BDC0462C
:102660000040054010B502000B000248FFF7D5FFFF
:1026700010BDC0460040054010B502000B000248E6
:10268000FFF7BEFF10BDC04600400540074B984213
:102690000AD0162301229A40054B1A60054B1B688D
:1026A00011009943FAD170471723F3E700800340E4
:1026B00000F0004008C0004070B5046BE30701D48F
:1026C000200070BD0B4BC3180B4A1A60456A836A21
:1026D000AD01ED18AD02062000F016F9074900F033
:1026E00027FB0100280000F023FB0021FFF7BAFFC1
:1026F000E6E7C04630300000010300004E0E000047
:1027000070B504000E001500FFF7D6FFE36A5E40C7
:102710003540024BE3181D60206370BD2C10000093
:1027200070B505000C00062000F0EEF8C000210096
:1027300000F0FEFA0130C60907D00E4B9E4215D8B4
:10274000400834003F26064000E001246C62AE627F
:10275000002200212800FFF7D3FF062000F0D4F864
:102760008000A101891900F0E3FA70BD0026024C37
:10277000ECE7C046FEFF0000FFFF0000002909D083
:102780000A22064B9C46604443425841044B400099
:10279000C252704780225200F3E7C0460080FCBF5F
:1027A000F41E002070B504000D00062000F0ACF807
:1027B00000281ED0104B9C421CD0162201239340AF
:1027C0000E4A13602000FFF761FF00212000FFF791
:1027D000D5FF29002000FFF7A3FFE26A70235A40CB
:1027E0000E331340064AA2181360064B23630323DB
:1027F000A36470BD1722E1E70080034000E00040C1
:102800002C10000001030000F8B5D646474680B5FD
:1028100006000D001700984644002418A400294B18
:102820009C4664446368089A934200D26260331FF6
:10283000DBB29A46012B2ED980221201C0239B01C4
:10284000E3181A60204BB200D158002907D058690C
:1028500000F06EFA013043001B18033BFDD27F01EC
:1028600023685F40E0233B4080225201A21813609E
:102870005346012B1AD980239B01E31880221201B1
:102880001A60089B6360104BB6004246F250C0BC11
:10289000BA46B046F8BD012DCED10322C0239B011C
:1028A000E3181A60A368DB07FCD5D8E72168694004
:1028B00003230B401360A3680122AA401A42FAD0F6
:1028C000D9E7C0460080004070190020F0B583B001
:1028D00005000E0017001800089900F029FA0300FF
:1028E000089A140200943A0031002800FFF78CFF88
:1028F00003B0F0BD10B582B0802464000094FFF7EF
:1029000083FF02B010BD0000014B8000C05870472B
:1029100070190020F0B5C64600B504000E0017007F
:102920001D00374800F004FA8046364BFA18364B43
:102930009A4239D80100380000F0FAF90200103A42
:1029400098235B009A4235D86B1E062B38D8069B1D
:10295000013B062B34D83F09474537D32D04069B4E
:102960001B031D432368002B36DB284B9C4244D0BD
:102970000C2201239340264A1360264A1360264AFC
:102980001268190091430A1EF9D12660A060234BFA
:10299000E31821321A602268002AFCDAE560082276
:1029A0001A6080BCB846F0BD1D4B1E4A1E4811215E
:1029B00002F082FB1D4B1B4A1B48192102F07CFBD5
:1029C0001B4B184A18481C2102F076FB194B154A7C
:1029D0001548232102F070FB22683F231340B342C5
:1029E000C3D1A3681B051B0D8342BED1E368EE2251
:1029F000D2021340AB42B8D1D3E70D22B9E7C046AB
:102A0000001BB70080E84BD380F8A93200C0024019
:102A100000E0004000F0004008C00040043000002A
:102A2000DCCE00104CD900102CCF001078CF001055
:102A300094CF0010E0CF001080239B000B43014A8D
:102A4000D36270470080054010B5010018231B8831
:102A500014221088984710BD10B5010018231B8858
:102A600016221088984710BDF0B5C64600B507007D
:102A70000E0000250123984600E00135B5420AD238
:102A8000AC003C192068FFF7DFFF20600028F4D17C
:102A900000239846F1E7404680BCB846F0BD0000F0
:102AA00070B504000D000348FFF7CEFF03002900B6
:102AB0002000984755420000074BAA2212011A60D5
:102AC0008D225200DA60054B054A1A60024B5B68A2
:102AD000002BFBDA7047C046004002400060024015
:102AE00000B0FA0010B5040001E008CC9847024B92
:102AF0009C42FAD310BDC046ACC60010704700001F
:102B000010B50248FFF7EEFF10BDC04670C60010BA
:102B1000054B064A1A60064B064A1A60064B1A68AD
:102B2000044B9343FAD1704700E00040BFCDFBFE59
:102B300000F00040FE7F3C0008C00040044BDB6C0E
:102B4000002B03D1034B8022D2021A607047C0468B
:102B5000000011504C201150044B054A1A60054BDF
:102B60001B68DB43DB01FAD17047C04600F0004030
:102B7000FFFFFF0108C00040034B40229A675A67DD
:102B80001A67DA667047C04600F0014010B5FEF7DC
:102B900097FD10BD10B50C4A0C4BD21A92101400C0
:102BA000302A00D9302292000948084901F036F94C
:102BB00004E0084A064BA100CA5001342F2CF8D972
:102BC000034B054A936010BDC001001000010010C6
:102BD00000000020C101001000ED00E070B50420ED
:102BE000FFF792FE064900F0A3F805000024002C30
:102BF00000DD70BDE0B22900FFF71EFF0134F6E7EB
:102C000040420F0030B583B0274B00229A67FFF790
:102C100053FF264B01221A60234B5B6C012BFBD127
:102C2000234B03221A60204B9B6B012BFBD10133FA
:102C3000009304331F4A01211F48FFF76BFE052351
:102C400000931E4A01211E48FFF764FE1D4B00221F
:102C500002210420FFF74EFE1B4D2B000022012114
:102C60000520FFF747FE194C230000220021072012
:102C7000FFF740FE2300002200210820FFF73AFE64
:102C80008023DB0000932300002200210920FFF7AE
:102C90001DFE2B00002200210620FFF72BFEFFF770
:102CA0009DFF03B030BDC046008000403CB00040F6
:102CB00030B00040002F685900800240008C8647E9
:102CC00000C00240001BB70040597307006CDC02D3
:102CD00001480421014B184750050020692A0010C3
:102CE000124A936F9B0815D29066D166002905D0D1
:102CF000FFE7FFE7FFE7516F106F704704B58021D2
:102D00000906C2175140002800D0C84309F090FCC2
:102D1000002104BDF0B5146E556E576F166FFFF7A6
:102D2000E3FF1466556657671667F0BD000000D0D4
:102D3000114A936F9B0813D210665166002905D083
:102D4000FFE7FFE7FFE7516F106F704704B50028FA
:102D500001D00020C04309F06BFC002104BDC04637
:102D6000F0B5146E556E576F166FFFF7E5FF1466DA
:102D7000556657671667F0BD000000D094464A4A72
:102D8000926F9208624601D228E0C046F0B5464EE6
:102D9000346E756E776F366F00F020F89446424AB5
:102DA00014665566576716676246F0BD94463E4AFC
:102DB000926F9208624601D254E0C046F0B53A4E96
:102DC000346E756E776F366F00F04CF89446364A65
:102DD00014665566576716676246F0BD002B24DB04
:102DE00011D000293EDA00B5C943404200D101317B
:102DF00000F038F8C943404200D10131DB43524270
:102E000000D1013300BD002AEBD1002801D10029F7
:102E100005D00020C90FC90701D1C043410800B542
:102E200009F0FEFB0022002300BD00B500290ADBEB
:102E3000DB43524200D1013300F014F8C943404251
:102E400000D1013100BDC943404200D10131DB4313
:102E5000524200D1013300F005F8DB43524200D169
:102E6000013300BD002923D1002B18D1002A0CD03A
:102E7000BC460D4F38667A6600210023FFE7FFE766
:102E8000FFE77A6F386F67467047002801D0074820
:102E9000010000B509F0C4FB0022002300BD0200C0
:102EA0000B00002000217047000000D0FFFFFFFF53
:102EB000002B00D0BFE0130C28D1002AE7D080B44B
:102EC000114F39667A66FFE7FFE730B4040C7B6F79
:102ED000396F1B0423433B667A66FFE7FFE7FFE792
:102EE000C04684B27B6F3D6F1B0423433B667A660A
:102EF000FFE7FFE7C04600232C042D0C7A6F386FE4
:102F000000196941B0BC7047000000D0F0B594468C
:102F10000025140E01D112020835140F01D112013F
:102F20000435940F01D192000235D40F01D1520023
:102F30000135D40B0134254F7C66254C3C660E0CC4
:102F400093B2FFE7FFE7FFE73C6F6643360C77037A
:102F5000BE467343DF0B5B04C01AB941130C7343C5
:102F6000DB18C91ACE086643360CB64493B27343D5
:102F70001F0F1B01C01AB941130C73431F0B1B0514
:102F8000C01AB941860D8F023E436643360C092DA7
:102F900024DB520A7243801A7703460A6643360CD2
:102FA00016235B1BDE40DF40BF1964466643821B6D
:102FB0007046043506330100D940A840C01900D33B
:102FC0000131A24206D20023F0BD0000000000D073
:102FD000FFFFFFFF121B0130F3D3F1E709277F1B2F
:102FE000FE406446A2B27243801A00D20139220C1C
:102FF0007243130C1204821A99410B007046043577
:1030000013370100F940A840801900D30131002B8B
:1030100002D1A2420AD2F0BD013000D30131121B0D
:10302000FAD2013BF8D1A24200D2F0BD013000D368
:103030000131121BF7E7F0B51C0C00D080E00CB496
:1030400000251C0A04D11B02160E33431202083558
:103050001C0B04D11B01160F3343120104359C0BCA
:1030600004D19B00960F334392000235DC0B02D152
:1030700092185B4101351C00971864410134464F9A
:103080007C66464C3C660E0CFFE7FFE7FFE7C04658
:103090003C6F6643360C7703BE4697B27743C01B3E
:1030A00000D20139C01B00D201399FB27743C91B3E
:1030B000C91B170C77437E04FF0B801BB941CE0858
:1030C0006643360C0C2D33DBB644120B1F053A4316
:1030D0001B0B97B27743C01B00D201399FB27743D5
:1030E000C91B170C77433E043F0C801BB941860D6A
:1030F0008F023E43664329277F1BFE400C3D7746E7
:10310000AF40BF1930BCA2B2ABB272437343801A56
:103110009941220C7243130C1204801A9941020047
:103120000B000137001BA941F9D2781E0021F0BD28
:103130000C277F1BFE4077467F0BAF40FF19E0E76F
:1031400000245D1C07D0144F7D663966FFE7FFE75A
:10315000FFE7FFE73C6F95B29EB265436643401BB5
:10316000B141150C1E0C6543664336042F0C3E43DB
:103170002D04401BB141994204D202000B002000F3
:103180000021F0BD01D19042F7D3801A994101345A
:103190009942F2D3F6E70000000000D0FFFFFFFFE6
:1031A00048404140484018B41B4B5B68FC460193C3
:1031B00008BD04DF1335001018B4174B1B68FC461C
:1031C000019308BD00DF1D3500109446134A926F2D
:1031D000920809D2624618B40F4BDB68FC46019393
:1031E00008BD0CDFD53700100C4AF0B5146E556ED3
:1031F000576F166F6246FFF7EEFF084A1466556672
:1032000057671667F0BD18B4034B9B68FC460193E3
:1032100008BD08DF79360010581C0020000000D0DF
:10322000FFB550404240504059404B40594000E0AB
:10323000FFB5154F4C00640D03D0BC4204D10C0304
:1032400014D80020090D09055C00640D03D0BC42B0
:1032500004D11C030AD800221B0D1B0501264B407C
:1032600009D44B4003D58B4200D18242FFBD994225
:10327000FCD19042FFBD0B43DB1803431343F5D051
:10328000C9434918FFBD0000FF07000000B5FFF764
:10329000CFFF01D0002000BD012000BD00B5FFF729
:1032A000C7FF804100BDC04600B5FFF7C1FF01D98F
:1032B000002000BD012000BD00B5FFF7B1FF01D91E
:1032C000002000BD012000BD00B5FFF7A9FF80412F
:1032D00000BD012040054A00121804D85A001218F7
:1032E00001D800207047012070470000002100280D
:1032F00005D17047C1174840401AFAD0C90713B525
:10330000064B1B6898470CBC441CA2401005120BCE
:103310000349091B09051943114310BD581D00201D
:103320001F04000010B54C00620D8023D218DB0092
:10333000D21A5B057E2A10DD9E3A13DACC170903F8
:10334000490819435242D140640001341532202A01
:1033500005DAD0400843604310BD002010BD084688
:10336000604310BDC80FC018013810BD18B4044B1D
:103370005B6AFC46019308BD24DF8539001000001C
:10338000581C002018B4044BDB6DFC46019308BDAB
:103390005CDF913A00100000581C0020C94211D394
:1033A00000B549004908002200F018F8002904D4AB
:1033B000002240428A41114600BD802109060020BA
:1033C00000BD000018B4044BDB6EFC46019308BD41
:1033D0006CDF933900100000581C002018B4044B17
:1033E0009B6FFC46019308BD78DFAF3900100000E9
:1033F000581C002018B4044BDB6FFC46019308BD39
:103400007CDF1D3A00100000581C002070B513230B
:103410001C78012C12D0012C12DC214B214A936420
:103420002148FFF711FB214B186070BD1C491D4A54
:103430009800815001331F2BF8D9ECE70023FAE7FD
:103440001B48FFF709FB05001A48FFF705FB023888
:1034500003789B007F2B09DD12488022290000F0B1
:10346000DDFC022C08D0022CDADCD6E7124B134A22
:103470001348332101F020FE124B1A88B5231B029A
:103480009A4209D1104B1A88104B9A4204D1104B22
:103490001A88104B9A42E6D00020FEF781F8C04609
:1034A000D9340010581C00204C330000581D002057
:1034B0005344000053460000FCCF001058D90010C0
:1034C00040D0001054380000D838000049460000B1
:1034D0009C3800005946000007B56046002800D11E
:1034E00000BE01880A0A0230DF2AFAD1C9B2820876
:1034F00004D3028840880004104300E00068024AB8
:103500005050039007BD0000581C00200FB403BCAE
:103510000CBCF0B50124E407634000E0F0B50C0DED
:10352000CF0F661E3605891B640503D3C94340428D
:1035300000D30131640D03D0661CF60A07D0E41BEA
:1035400000207F00791C89078912803C24031D0D0F
:10355000DF0F6E1E36059B1B6D0503D3DB43524206
:1035600000D301336D0D03D06E1CF60A07D0ED1B9E
:1035700000227F007B1C9B079B12803D2D032F1B8D
:10358000661B58D4A446202E46DA20371400BC40CF
:103590001D00BD40F24033412A4380185941CB0FF2
:1035A00005D0C943C04300226442504151416246A4
:1035B0004D0D28D10D0D07D100281FD024194041F1
:1035C0004941013A0D0DF9D0640006D3013000D312
:1035D0000131002C01D140084000013A0BD4941C69
:1035E000E40A04D112051144DB071944F0BDD907E0
:1035F000204B194300E0D9070020F0BD0029DDD1A0
:10360000002CDBD1F0BD0132C6074008CD072843AE
:103610004908002EE1D0D9E73C2E29DA203E403778
:103620001400BC4000D00124F24014431A00BB40F7
:103630001C43D317ACE7AC46202F08DA2036040031
:10364000B4400D00B540F84039412843A5E73C2F70
:103650000CDA203F40360400B44000D00124F8408A
:1036600004430800B1400C43C117EAE710001900F9
:10367000002494E70000F07FF0B50C0D661E3605BF
:10368000891BE60A6405640D02D0651CED0A04D0AE
:10369000002001210905803C2403A4461C0D671E5F
:1036A0003F05DB1BE70A6405640D02D0651CED0ACB
:1036B00004D0002201231B05803C2403774064448E
:1036C00097B484B296B27443070C7E43150C6F43D3
:1036D00080B26843361802D3012000043F1830043A
:1036E000350C00197D41844688B29AB250430C0CC7
:1036F00062431F0C7C438EB27E43921902D3012693
:103700003604A4191604170C3618674101BC81B29F
:103710009AB25143040C62431B0C5C4380B2584381
:10372000121802D30120000424181004130C4018AE
:1037300063412D185E410020474106BC88B293B218
:1037400058430C0C6343120C544389B251435B1829
:1037500002D301210904641819041A0C09186241E2
:103760006D1856410020474118BCF902720D1143F3
:10377000F0026A0D1043ED020A0D03D16D194041AC
:103780004941013B124E9B1B7600B3420ED26D00A5
:1037900007D30130002671416646354301D1400808
:1037A00040001B05C918E4072144F0BD0BDA0133C2
:1037B00006D1013004D101314F0D01D04908F2E7A3
:1037C000E1070020F0BD013631050020EBE70000E5
:1037D000FF030000F0B51C0D671E3F05DB1BE70A69
:1037E0006405640D02D0661CF60A04D00022012391
:1037F0001B05803C2403D0252D060026F6432E66AB
:103800001E096E66CE0FF619B44649004F0D02D060
:103810007E1CF60A03D000200021403F3F033E1BE0
:10382000B600B444013F7F05C91B49082E6F01361D
:1038300076089C02950D25437543ED137543AD1332
:1038400001356D10F603761B0CB4CC02450D2C43EC
:10385000A2B2B3B25A43270C7B43350C6F43A4B2D8
:103860006C431B1902D3012424043F191C041D0CB2
:10387000A4187D4124196D41009A91B2ACB2614304
:10388000170C7C432B0C5F4392B25A43A41802D30B
:1038900001221204BF182204230C52187B41019C00
:1038A0006C431B19520ED9010A434401A01A81B27C
:1038B000B2B2514303145A43360C734387B2774371
:1038C000D617D21900277E4136049B191704160C0F
:1038D0007F185E417316ED18F301002680337541A1
:1038E000A90F06D16400690AE8055B0A184309D2EA
:1038F0002FE00422944480337541A90AA8059B0A4D
:10390000184326D3404149412404009A019B0D00ED
:103910005543641B4343E41A95B286B27543170CB2
:103920007E43030C5F4392B25A43B61802D301227E
:103930001204BF183204330C52197B4152429C418D
:10394000002C02D40022013051414008CA07104324
:10395000490802B06246D7079210084BD218084BAC
:103960009A4203D212058918C919F0BD0020002A15
:1039700001DC3900F0BD01331905F5E7FD03000056
:10398000FE070000002200B5203200F010F8080009
:1039900000BD002200B500F00CF8CA179A4200D111
:1039A00000BDD8430121C907414000BD00220B15CD
:1039B0000AD410B5944600F0A7F81414013400DAC4
:1039C0000021CB17144C204700200021704762448F
:1039D000343A0CD40C2A07DA040091409040524249
:1039E0002032D440214310BDD843D94310BD2032EA
:1039F00007D40C469440524220321141D04020431B
:103A000010BD0800C917203203D4524220321041A1
:103A100010BD1800190010BDCF3900104A00520D1A
:103A2000144BD21A13DDFF2A1EDAD205CB0FDB07A7
:103A30001A43C300400F0903490A084310435B00BF
:103A400001D301D0013070474308FBD2704702D048
:103A5000C80FC00770470A0312130132F8D1420F92
:103A6000072AF5D1012200E0FF22C80F00028018CA
:103A7000C00570478003000000210A00002104E017
:103A800000210A00C11704E00022002306E0C0461E
:103A90000022CB1758405940C01A994130B5184CF4
:103AA000A21A002903D1010010D00020203A4C15A1
:103AB00012D104D2013A001849414C0DFAD3114CED
:103AC000A24204D212058918DB07C91830BDD243BF
:103AD000520D00200021F5E703D4013A00184941B6
:103AE000FBD50B324405C00A4D052843C90A6400C2
:103AF00003D0002460416141E1E7E0D34408F8E7E6
:103B000032040000FE0700000A0DCC0F531E1B05F7
:103B1000C91A520503D3C943404200D30131520DA3
:103B200003D0531CDB0A07D0121B00206400611C69
:103B300089078912803A1203014BD21A704700009C
:103B4000FF03000051434343C9188C46110C83B254
:103B50004B4310B4040C614392B280B250436243B1
:103B60001C041B0C001910BC59411304120CC01882
:103B700051416144704700004840414048400023A3
:103B80009C46114B5B68184700239C460E4B1B68F4
:103B900018470E4A936F9B0804D200239C460A4B99
:103BA000DB681847F0B5146E556E576F166FFFF748
:103BB000F4FF064A1466556657671667F0BD002382
:103BC0009C46014B9B6818475C1D0020000000D0FC
:103BD00007B548404140484001E0C04607B54200B3
:103BE000120E03D0FF2A03D1420218D8C00DC0051F
:103BF0004A00120E03D0FF2A03D14A020FD8C90D82
:103C0000C9050122414005D4414001D5814207BD8B
:103C1000884207BD0143491801D0C043001807BDC1
:103C200000B5FFF7DBFF01D0002000BD012000BD83
:103C300000B5FFF7D3FF804100BDC04600239C467E
:103C4000014B5B6A184700005C1D0020034BDB6FD3
:103C5000FC4618477CDFD13D001000005C1D0020B1
:103C600070B513231E782A48FEF7F6FE0500012ED4
:103C700011D0012E09DDAB1E1B789B007F2B40DD90
:103C800024488022290000F0C9F82348FEF7DCFE12
:103C9000224B186070BD1F485422290000F0BEF866
:103CA0001F4B1A881F4B9A421CD1A7239B011A88CD
:103CB0001D4B9A4216D11D4B1A881D4B9A4211D1A9
:103CC0001C4B1A8894239B019A420BD11A4B1A88D9
:103CD0001A4B9A4206D11A4B1A681A4B9A4201D1D2
:103CE000152307E01848FDF75BFC184C094A9900BA
:103CF0008C5001331F2BF8D9144B064A1362D36141
:103D0000B7E7134B134A1448422101F0D5F9C046D6
:103D1000534600005C1D00204C330000581D00205D
:103D2000EE290000C40F0000C20D0000962B000019
:103D3000C0B50000182B0000CC2A000010B5000010
:103D4000FC2C000051ED8764D4D400109D3D001080
:103D50009CD000106CD90010D0D00010C20DFF23F1
:103D600013407F3B5A1C0FDB5A1C10D01722D21A6B
:103D7000002A08DD1622D21A0123934018180223C4
:103D800093405B4218407047C00FC007FBE7C00F6D
:103D9000C307FE2080051843F5E7000007B560461D
:103DA000002800D100BE01880A0A0230DF2AFAD1B9
:103DB000C9B2820804D3028840880004104300E09E
:103DC0000068024A5050039007BD00005C1D0020AF
:103DD000C30FDB0741000A0E07D0FF2A08D00909EC
:103DE000054A891819434007704719000020704799
:103DF0000249C918FAE70000000000380000F07F0F
:103E000001480421014B184760050020692A001071
:103E1000014B1B681847000060050020014B5B68E0
:103E200018470000600500209A4200D2885470476D
:103E3000704710B5002802D00B684968984710BD3C
:103E40000100002007E083001B185B00501C086085
:103E50001078C01830380A681378303BDBB2092B71
:103E6000F1D97047F0B5DE4657464E464546E0B5B7
:103E700083B093461F000C9B9A460D9C0E9B99465F
:103E80000F9B9B0717D0B8460F00060022E0551C79
:103E90004B4641462020B84701342A00B442F6D3AD
:103EA0003D004F465C46019B9B46B1464646B846A0
:103EB00037002E000EE00192A34688464E46B946D2
:103EC0000700EBE7013C551C5346185D434639009B
:103ED000B0472A00002CF5D135003E0047460F9B25
:103EE0009B0711D4100003B0F0BCBB46B246A946F4
:103EF000A046F0BD541C4B4641462020B847220046
:103F0000531BB342F6D3EDE7B0464E46B9462F00F9
:103F10005D46F5E7F0B5CE46474680B585B0944698
:103F200098460C9D0D9C0EAB1B789946109A119BE0
:103F3000129EB7071CD4002B0CD0F7070AD54F46AA
:103F4000002F02D10C37374204D0013B02E030276A
:103F50002F550134944201D21F2CF8D9F70707D509
:103F60009C4205D21F2C03D830272F550134F5E78A
:103F7000F70612D5770505D4002C03D0944221D042
:103F80009C421FD00F9A102A2FD00F9A022A36D0A7
:103F90001F2C0AD830222A5501341F2C05D84A4636
:103FA000002A32D02D222A5501340396029301941F
:103FB000009543466246FFF755FF05B0C0BCB946C1
:103FC000B046F0BD621E012C17D00F9F102F0BD0F2
:103FD00014000F9A102AD8D1B206D6D51F2CD4D8E7
:103FE00058222A550134D3E7023CB206F1D41F2CE3
:103FF000EFD878222A550134CAE71400C2E71F2CF3
:10400000D3D860322A550134C2E7720703D52B2278
:104010002A550134C9E73207C7D520222A55013471
:10402000C3E7F0B5DE4657464E464546E0B593B089
:1040300081468A46089209931CAB10CB1B789B469D
:104040001E9D219B9846002C03D1102342469A4383
:1040500090468023DB0046461E4042461A4218D056
:10406000002C22D0002614E0424692061BD54121A6
:10407000C918C9B20A39C9B2771C0AAB99552900C7
:104080002000FEF755FEAC4210D31F2F0ED83E0085
:10409000040029002000FEF74BFECBB2092BE3D829
:1040A0003033D9B2E8E76121E2E7270043460693BF
:1040B000209B05931F9B049303955B4602930197F6
:1040C0000AAB0093099B089A51464846FFF722FF26
:1040D00013B0F0BCBB46B246A946A046F0BDF0B551
:1040E000DE4657464E464546E0B597B00A900B91DE
:1040F0000C929A46209B9946219F22AA13789B46B0
:10410000249B0993259C289B98464A463A4302D112
:104110001032934398468022D200454615404346CC
:1041200013420AD04A463A4341D000252E00534656
:104130000D934D46099B9A4621E02E0053460D9360
:104140004D46099B9A461AE04246920623D54122E3
:10415000D218D2B20A3AD2B2731C99460EAB9A5513
:104160005246230028003900FEF720FEBC4220D82A
:1041700013D04B461F2B16D84E4605000F00524653
:10418000230028003900FEF711FED3B2092BDBD83B
:104190003033DAB2E0E76122DAE7AA45E9D94E46E0
:1041A0000D9B9A4608E04E460D9B9A4604E0002679
:1041B00002E04E460D9B9A4643460693279B059385
:1041C000269B0493099B03935B46029301960EABD7
:1041D000009353460C9A0B990A98FFF79BFE17B071
:1041E000F0BCBB46B246A946A046F0BDF0B5DE46DF
:1041F00057464E464546E0B591B0804689460C92FA
:104200009A461A9C1B9D22002B0020002900FFF7D4
:1042100060F8002800D0F2E001225242D54B200085
:104220002900FFF751F8002800D0E8E001225242AF
:10423000D14B20002900FFF731F8002800D0DEE044
:104240000022002320002900FFF728F8002800D0D2
:10425000EAE0069407958023DB001E9A1A400D922F
:104260001E9A1A4201D106231C9306980799020050
:104270000B000892099303000A00024300D1DFE01B
:10428000080D4005400DBD4EB4466044079E320304
:10429000120B1E00BA4B13431F00FFF72BF8B94A4D
:1042A000B94BFEF7B0FFB94AB94BFEF785FF08904E
:1042B00009910022B74B30003900FEF774FFB64A6F
:1042C000B64BFEF7A0FF02000B0008980999FEF715
:1042D00073FFFFF727F88346FFF70CF806000F007F
:1042E000AF4AB04BFEF78FFF0022AF4BFEF764FFE3
:1042F000FFF718F80890AD4AAD4B30003900FEF7D3
:1043000082FF06000F000898FEF7F4FFA94AAA4BA7
:10431000FEF779FF02000B0030003900FEF743FF83
:1043200006000F0002000B00FEF76DFF0A900B91D4
:10433000089BA24A944663440021002208910992F6
:104340001B0509930023089332003B00300039001D
:10435000FEF732FF0E900F9132003B0000208021CB
:10436000C905FEF720FF06000F000022944B0A98B3
:104370000B99FEF72AFF0022924BFEF71DFF020069
:104380000B000A980B99FEF720FF00228E4BFEF7D8
:1043900013FF02000B000A980B99FEF716FF0200AC
:1043A0000B0030003900FEF707FF02000B000E98EB
:1043B0000F99FEF70AFF0022714BFEF7FDFE089AE7
:1043C000099BFEF720FF06000F0008960997069A42
:1043D000079BFEF779FF00280BD001235B429C4628
:1043E000E3440022774B30003900FEF7EEFE0890E0
:1043F00009915B466333C62B45D8042623E01E9BF8
:1044000004931D9B03931C9B0293009401955346B8
:104410000C9A4946404600F0FBF811B0F0BCBB4690
:10442000B246A946A046F0BD00210022069107929F
:10443000069480231B069C46AC44634607930AE718
:1044400000239B4604261E9B1B0528D5089A099B22
:10445000190011430FD05D4A5D4B06980799FEF78E
:104460002BFF00287AD000225A4B06980799FEF7B6
:1044700015FF002872D01C9B5B4506DD5A469B1A2F
:10448000013B1C9303E00526DDE700231C938023FA
:10449000DB001E9A1A431E92002600239B461D9B9A
:1044A0009E4265D29F1B02231E9A1A400A921E9AB0
:1044B000134202D0002E00D000275B46002B07D00D
:1044C000089A099B06980799FEF77FFE06900791C8
:1044D0000022002320002900FEF7E0FE002800D083
:1044E0007CE03D4B1E9A1340049303971C9B029360
:1044F000069B079C0093019453460C9A49464046FC
:1045000000F086F8002E00D187E71E9B9B0671D530
:104510004525441C5346020049462800C0475A46D8
:10452000D317D2185A4005230593013E0496002361
:1045300003930A3302935B46DB0F019300925346C9
:10454000220049464046FFF76CFD0A9B002B00D134
:1045500063E7020047460C9E1D9D53E01C9B002B09
:104560009DD00D9B002B9AD01C9B013B1C9396E782
:10457000002798E7FFFFEF7FFFFFEFFF01FCFFFF42
:104580000000F03FFB799F501344D33FB3C8608BCA
:10459000288AC63F0000F83F61436F63A787D23F78
:1045A00071A379094F930A400000E03F1655B5BB4F
:1045B000B16B0240EF39FAFE422EE63FFF030000E6
:1045C00000002C4000002440000018402D431CEB4C
:1045D000E2361A3F80842E41FFF7FFFF069C079DBD
:1045E0002200290080200006844661440B000692C8
:1045F000079376E765258CE7541C534649462020EF
:10460000B8472200931BAB42F6D3100005E7C04623
:10461000F0B5DE4657464E464546E0B595B00690A5
:10462000079193469946209F1E9A1F9B10001900E0
:10463000FEF74FFE002831D101225242BC4B1E989A
:104640001F99FEF72BFE002837D101225242B94BA9
:104650001E981F99FEF738FE00283DD10022B64B68
:104660001E981F99FEF730FE00284AD10022B34B56
:104670001E981F99FEF712FE002842D10022002347
:104680001E981F99FEF70AFE00284AD1002398467B
:10469000229B5B0500D4B0E0002452E0229B0393F0
:1046A000219B029303230193A54B00934B465A464B
:1046B00007990698FFF7D6FB08E1229B0393219BFD
:1046C0000293042301939F4B00934B465A4607994C
:1046D0000698FFF7C7FBF9E0229B5B070ED59A4BC4
:1046E00004222299039121990291019200934B4651
:1046F0005A4607990698FFF7B5FBE7E0934B03226C
:10470000EFE7229B0493219B039302971E9B1F9C20
:10471000009301944B465A4607990698FFF766FDA9
:10472000D4E01E9A1F9B00200021FEF73CFD1E9046
:104730001F9101239846ABE70CAB30221A55013F7D
:1047400001341F2C01D8092FF6D81E981F99FEF7A7
:10475000E9FD0500FEF7CEFD02000B001E981F9933
:10476000FEF721FD7A4BFA009B181A685B680A92E3
:104770000B93FEF748FD08900991FEF7F7FD060040
:10478000FEF7B4FD02000B0008980999FEF70BFD37
:104790000890099100226F4BFEF796FD00282ED05D
:1047A00001363000FEF7A2FD02000B000A980B99BB
:1047B000FEF77AFD002801D001350026002F2CD10C
:1047C0002800FEF797FD02000B001E981F99FEF7C8
:1047D000EAFC06000F0000225E4BFEF75FFD00289A
:1047E00046D100225B4B30003900FEF76DFD0028FA
:1047F0003ED1EB073CD501353AE006274CE70022D5
:10480000544B08980999FEF749FD0028D6D1002E8F
:1048100001D0F307D2D50136D0E7AA461F2C11D814
:10482000013F0A213000FEF783FA651C30310CABE2
:1048300019550A213000FEF77BFA092E0ED9060021
:104840002C00EBE755461F2C0CD87B1E002F09D0FF
:104850000CAA302111551F000134F4E72B005546F6
:104860001C00F0E71F2C03D80CAB2E221A55013484
:104870001F2C10D80A212800FEF732FA661C3031AE
:104880000CAB19550A212800FEF72AFA051E01D0A3
:104890003400EDE734000323229A1340012B1CD08F
:1048A0001F2C06D84346002B32D00CAB2D221A55B4
:1048B0000134229B0393219B029301940CAB009340
:1048C0004B465A4607990698FFF7CCFA15B0F0BC4C
:1048D000BB46B246A946A046F0BD219B002B13D093
:1048E0004346002B02D10C3313420FD0219B013BD6
:1048F0002193190003E00CAB30221A5501348C428D
:10490000CED21F2CF7D9CBE72199F8E72199F6E70A
:10491000229B5B0704D50CAB2B221A550134C8E748
:10492000229B1B07C5D50CAB20221A550134C0E7CA
:10493000FFFFEFFFFFFFEF7F65CDCD4165CDCDC11F
:1049400078D100107CD100106CD1001074D100100F
:1049500070DB00100000E03FF0B5DE4657464E46E3
:104960004546E0B593B007008A4693461193002967
:1049700000D12CE3002508E06C1C5B462A00514660
:10498000B847119B013311932500119B187800281B
:1049900000D11EE32528EFD1013311930023180025
:1049A00020E00123184301321192012418E0022370
:1049B000184301321192012412E0042318430132FA
:1049C000119201240CE008231843013211920124B2
:1049D00006E01023184301321192012400E0002464
:1049E000002C09D0119A1378203BD9B21029F6D89F
:1049F0008B00C449CB589F468146119B1A781300FF
:104A0000303BDBB2092B10D92A2A13D00B94119B0F
:104A10001A782E2A20D0119A1378683BD9B212291D
:104A200065D88B00B849CB589F4611A8FFF708FA04
:104A30000B90ECE71C9B1A1D1C921B68002B04DBDF
:104A40000B93119B01331193E1E702220100114303
:104A500089465B420B93F4E78022D200494611431A
:104A600089465A1C11925A781300303BDBB2092B4D
:104A70000BD92A2ACFD11C9B1A1D1C921C68002C12
:104A800008DB119B01331193C5E711A8FFF7D8F993
:104A90000400C0E70024F4E780235B0049460B4391
:104AA000511C119151786C2901D099461FE0C02307
:104AB0009B004946194389460232119217E0802330
:104AC00049460B43511C11915178682901D09946F0
:104AD0000DE0C0234946194389460232119206E08F
:104AE00080235B0049461943894601321192119B8C
:104AF000187867281CD8252800D25EE20300253BE1
:104B0000DAB2422A00D958E29300804AD3589F462D
:104B100080239B0049461943894601321192E6E7FA
:104B200080235B0049461943894601321192DEE732
:104B3000782800D941E2692800D23EE20200693AB1
:104B4000D2B201239340724A134210D11A0600D503
:104B50000CE25B0500D430E21C9B1A1D1C921E68FF
:104B6000002C00D0BAE101225242330096E16F28B6
:104B700042D005D8582841D0622803D1022606E049
:104B800078283DD010234A469A4391460A26582851
:104B900038D0692805D0642803D00C224B469343B3
:104BA00099464B465A0502D50122934399466928F6
:104BB0002DD064282BD04B469A0500D5AAE0DA0503
:104BC00000D5C2E05A0600D4D3E01C9A111D1C91F6
:104BD0001168FF220A404B4605930B9B04930394F4
:104BE00002960023019300925B462A00514638004A
:104BF000FFF717FA05002AE00826C8E71026C6E7DF
:104C00001026C4E720224B4613439946C1E74B4682
:104C10009A0520D4DA0551D45A0666D51C9A111D7E
:104C20001C911168FF220A40D017111841404B46D1
:104C300005930B9B049303940296D20F019200916B
:104C40005B462A0051463800FFF7EBF90500119B3F
:104C50000133119399E61C9A073207218A43110008
:104C600008311C91116853689C46DB170C930D9317
:104C70000C9A0D9B100048400E900D9B61464B40D6
:104C80000F930E980F990C9A0D9B801A99410E90D4
:104C90000F914B4608930B9B0793069404960023B1
:104CA00005936346DA0F0292009001915B462A0059
:104CB00051463800FFF713FA0500C8E71C9A111D8A
:104CC0001C911268D0171118414005930B9B049357
:104CD00003940296D20F019200915B462A0051463E
:104CE0003800FFF79EF90500B1E71A0605D51C9AB2
:104CF000111D1C910023D25E96E71C9A111D1C9178
:104D0000126891E7D4D9001018DA001064DA0010A4
:104D1000419000001C9A073207218A431100083194
:104D20001C9108930B9B079306940496002305930C
:104D3000029353681268009201935B462A00514621
:104D40003800FFF7CCF9050081E71C9A111D1C9172
:104D500005930B9B0493039402960023019313681D
:104D600000935B462A0051463800FFF75AF90500C8
:104D70006DE71A0606D51C9A111D1C9112681204C3
:104D8000120C28E71C9A111D1C91126823E7462873
:104D90001AD01C9B0733072293431A0008321C9237
:104DA0004A4604920B9A039202941A685B68009236
:104DB00001935B462A0051463800FFF729FC0500A5
:104DC000119B01331193E0E520234A461A43914693
:104DD000DFE7672801D0472804D180231B014A461A
:104DE0001A439146452801D0472803D120234A463B
:104DF0001A4391461C9B0733072293431A0008323B
:104E00001C924A4604920B9A039202941A685B68B9
:104E1000009201935B462A0051463800FFF7E6F9FD
:104E20000500119B01331193AFE502234E461E404E
:104E30004A4613421ED001241C9B1A1D1C926A1C58
:104E4000904618785B462A005146B847002E14D188
:104E5000119B01331193454697E5551C5B4651461E
:104E60002020B84723002A005C1C0B999942F4D8F3
:104E70001500E1E701232A00F6E7424606E0561C4A
:104E80005B4651462020B8472C003200651C0B9B26
:104E9000A342F4D89046DBE701330A0019780029D1
:104EA00002D0511E002AF7D19B1B8022D200494616
:104EB000114088464946114202D0A34200D923003E
:104EC000022249461140109149460A4208D02A0060
:104ED000250099463B004746984626E0220044E6D6
:104EE000A1462A005146B2460E0006E0551C5B461C
:104EF00031002020B84723002A005C1C0B999942FE
:104F0000F4D8150022004C46330056469A46914686
:104F10002A0025003B004746984606E01D00013662
:104F2000541C5B465146C04722003078002804D00C
:104F3000002FF4D06B1E002DF0D115004B464746D4
:104F4000109A002A03D1119B013311931DE50B9E8A
:104F50002A0006E0551C5B4651462020B847230036
:104F60002A005C1C9E42F5D81500ECE721234A4636
:104F70001A4313001C9A111D1C91126805930823F3
:104F800004930394083302930023019300925B4639
:104F90002A0051463800FFF744F80500119B013301
:104FA0001193F2E46C1C5B462A0051462520B84759
:104FB000119B013311932500E7E46C1C5B462A002A
:104FC0005146B847119B013311932500DDE40A4F88
:104FD000D0E45D450DD35B465A1E5B46514600202A
:104FE000B847280013B0F0BCBB46B246A946A0465D
:104FF000F0BD2A00F1E7C046313E00100EB430B5D6
:1050000084B0010007AC08CC03940122054D009444
:1050100052422800FFF7A0FC04B030BC08BC03B02B
:105020001847C046293E00100CB430B585B00A00C0
:1050300008AC08CC0394054D009401002800FFF74C
:105040008BFC05B030BC08BC02B01847293E0010EC
:1050500010B584B00C0002A902904C6001240448F1
:10506000009313006242FFF777FC04B010BDC04606
:10507000333E001000BEFDE703000A4A1268002A12
:1050800008D0084A1068C318074A9A4206D3054A4E
:1050900013607047034A05491160F2E7012040425E
:1050A000F7E7C046E01B002000000420681F002036
:1050B00010B5FFF7DFFF000030B583B00D00190019
:1050C000002A0BD0074B084C019200932B000200E2
:1050D000200000F045F90120FFF7CCFF034B1A0038
:1050E000F1E7C04684D1001094D10010D4D4001050
:1050F00010B5EFF30583002B00D000BEFDF700FDD7
:10510000034C01E008CC9847024B9C42FAD310BDF7
:10511000ACC60010B4C6001010B5030008001100A2
:105120001B68984710BD0000F8B507000D00160079
:10513000437D002B02D0002400200CE00368110006
:10514000280098472DE03B7D10E03B681548022180
:105150009847601C0134B44214DA002CF3DD2B199B
:10516000013B1B780D3B5A425341DBB22A5D0A2AB0
:10517000F0D1002BEED1A042E7DA3B68211A2818C3
:105180009847E2E7B04203DA3B68311A281898479B
:10519000002E06DDAD19013D2B780D3B5A425341DF
:1051A0003B75F8BDC0DB001070B505000368002B2F
:1051B00016D00C4B1C6805E0290004C92000FFF73D
:1051C000B3FF2469002C09D02368002BF9D0064BCB
:1051D0001B68002BF0D0A342F3D1EDE700232B6036
:1051E00070BDC046B4190020DC1B002070B505005E
:1051F0000C000B68802B05D023685A1C2260E41831
:10520000257170BD0800FFF7CFFFF5E710B5FDF77A
:1052100021FA074A002312184B41002B03DB0548F3
:1052200007F016FA10BD01225242034BF7E7C046C1
:1052300040420F00580C0020FFFFFF7F10B50248CE
:1052400007F0E6F910BDC046580C0020F0B5CE4678
:10525000474680B583B006000D0090461C00FFF75E
:10526000D5FF81466B1C05D0002C08D0184F194B78
:105270001C6807E0300005F019FE0500F4E7164F42
:10528000F5E72469002C17D02368002BF9D0134BC5
:105290001B68002B01D0A342F3D12A00310020006B
:1052A000B8474346002BECD06B46D91D0A230B7040
:1052B00001222000B847E4E74B46002B05D1280027
:1052C00003B0C0BCB946B046F0BDFFF7B7FFF6E784
:1052D00029510010B419002019510010DC1B0020C6
:1052E00010B5064B1C6800E02469002C04D06368EC
:1052F000002BF9D09847F7E710BDC046B41900203D
:1053000070B5050005F0D2FD040001230122010063
:105310002800FFF79BFFFFF7E3FF200070BD0000B0
:10532000F0B5A3B004000E00FFF770FF050001AF59
:10533000002301930948330022003900FFF788FE5B
:1053400004003800FFF730FFFFF7CAFF002D02D13D
:10535000200023B0F0BDFFF771FFF9E7ED51001019
:105360000FB400B583B004A901C90191FFF7D8FFBC
:1053700003B008BC04B01847074B83420AD004238B
:1053800001229A40054B1A60054B1B681100994396
:10539000FAD170470323F3E77005002000F00040C6
:1053A00008C00040F0B5DE4657464E464546E0B5DB
:1053B00087B0070093461800039310AB1A78059244
:1053C000119D129A90463B680022DA663B6859604C
:1053D0003B680132DA660290002399460493002666
:1053E00000242DE03B79002B39D0012337E0059ACA
:1053F000002A01D0002236E0012234E0002E0CD138
:105400003B685B6BDB0608D4002DF7D000214046DB
:10541000A84706000443E4B2F0E7002E09D13B6838
:1054200080229A580492002A28D1002C39D1CA45EA
:1054300027D0002C3DD101239C46E144019B9B4693
:10544000029B994535DA039B013B9A46002D02D019
:1054500001214046A8474B46002BC3D000239B02A6
:10546000CA45C4D00022520213435A460132019267
:105470005A4611783A680B431361C5E75B6D012406
:105480000FE0059B002BD4D10BE000214046A8473C
:1054900006000443E4B2002E06D13B685B6B9B051B
:1054A00002D4002DF1D1F6E7002EC2D13B681B6E6D
:1054B000BFE7002C08D0002E10D1049A002A11D08A
:1054C000D30713D4130715D5059B3B71484607B086
:1054D000F0BCBB46B246A946A046F0BD02235B42E3
:1054E0009946F1E701235B429946EDE701235B42D0
:1054F0009946E9E701235B429946E5E7F0B5D646D0
:105500004F464646C0B505000C000520FDF7FCF9E6
:105510000600600880192100FDF70AFC070043001F
:105520009946814405214846FDF702FC80463B1A16
:105530009A46274B9C423CD8700080192549FDF7BC
:10554000F7FB441C4346023BA34239D32B6800229D
:10555000DA662B6819680432514002320A40802111
:1055600049018C4663441A602B685246DA612B6805
:1055700042461A624B464F2B28D950214846FDF728
:10558000D7FB2A68A023D0502B68DA6F544024043C
:10559000240C114A944663441C602B680122DA668D
:1055A00039003000FDF7C4FBE0BCBA46B146A8465E
:1055B000F0BD700080190949FDF7BAFB441CC1E732
:1055C000074B084A08485D21FFF776FD0120D8E720
:1055D0003F420F00809698007C10000040787D01CB
:1055E000C4D10010C4DB0010E4D1001070B5040079
:1055F0000D00114B98421DD00422012393400F4A05
:1056000013602000FFF7B8FE002323712268D366E1
:1056100022686621FF3111602268D3632268936398
:10562000226888336339FF39D15029002000FFF701
:1056300065FF70BD0322E0E77005002000E0004038
:1056400030B585B008AC257800240294019400950B
:10565000FFF7A8FE05B030BD30B505004B0613D0EE
:10566000012200E001320F2A0CD85301074C18190F
:105670001B5D002BF6D0437FAB42F3D183788B4286
:10568000F0D100E0002030BD0048FCE7D819002030
:10569000012200200F2A09D85301054958185B5CE4
:1056A000002B01D00132F5E7511E81777047C046CB
:1056B000D8190020F0B5C64600B584B00D00437F70
:1056C00098468778C68A00F05FFC01AC0C22002166
:1056D0002000FEF79DFB022363704346A3702771F1
:1056E000657103960121200006F0BAFF04B080BC6A
:1056F000B846F0BD10B50A4BDB6C9B0709D5094BCA
:105700009B7E002B06D007480823C3820021FFF7A9
:10571000D1FF10BD044B054A0548AD21FFF7CCFC75
:1057200000001150D819002030D200108CDC00107D
:105730003CD2001010B5002807D11148114B8360EE
:10574000114B4360114BC36010BDFFF7A1FF002850
:105750000FD0837FDA000E49511881600D498C46C5
:105760006244426002339B01084A94466344C3602A
:10577000EAE7094B094A20210948FF31FFF79CFC61
:10578000D8190020800010500001105080011050E6
:1057900088001050080010509CD200100CDC001043
:1057A0003CD2001010B50C000A4B98658B7E002B84
:1057B00005D0080000F06EFC002806D110BD064B95
:1057C000064A07486921FFF777FC00212000FFF710
:1057D00071FFF3E70030115030D20010A0DC001050
:1057E0003CD2001070B5164B9E6DF30701D4012515
:1057F00019E001239E4313494B681B680120FFF702
:10580000D1FFF4E7864369010E4BC918FFF7CAFFC1
:105810000134012C06D86B001B190120984030423E
:10582000F6D0EFE701350F2D03D8002E01D000246C
:10583000EFE7002E00D170BD03483100FBF7B0FE4A
:1058400000001150D8190020A0D2001030B585B04A
:105850002F4A9823D458973B1D002540234211D04E
:10586000136D1B0A9B0721D001A80023037043700E
:1058700003714371012106F0F3FE264BC022920012
:105880001A65012563051CD4E30626D4230729D411
:10589000630605D540231D431E4B802212051A6561
:1058A000A30628D4A5422DD105B030BD01A8002300
:1058B00003700122427003714371012106F0D0FE92
:1058C000DBE78023DB001D43124B802292051A6523
:1058D00011480221FFF7EEFED6E710231D43FFF724
:1058E00081FFD3E708231D430A4B8022D2021A65A9
:1058F000FFF700FFCCE7074B802212061A65074826
:10590000FBF74EFE290061400548FBF749FEC04603
:105910000000115000301150D8190020B8D20010EA
:10592000CCD2001070B500281DD100F00BFB114C3B
:105930000C23A367104D29000520FCF7B5F8FF22C2
:1059400029000520FBF7A4FF0C48802292000021CB
:10595000FEF75EFA03232364094BE3649023094AAC
:10596000E250012070BD084B084ABF210848490099
:10597000FFF7A2FB000011504D580010D81900206D
:10598000008600207B040000E0D2001080DC0010C4
:105990003CD2001010B5002800D110BD034B044AC2
:1059A000D52104484900FFF787FBC046E0D200102C
:1059B00070DC00103CD200107047000010B50028C9
:1059C00008D1084B186DC0239B001840431E984116
:1059D000C0B210BD044B054AB8210548FF31FFF79E
:1059E0006BFBC04600001150E0D2001058DC0010E4
:1059F0003CD2001010B5031E0AD10A4A126D120AD9
:105A000003201040012802D0022808D1180010BD40
:105A1000054B064ADF2106484900FFF74DFB0548C4
:105A2000FBF7BEFD00001150E0D2001044DC001076
:105A30003CD20010ECD20010F8B5CE46474680B5F7
:105A400004000E00994608A90D7809A90B789C4618
:105A500043689846002B4DD08368002B51D0C16815
:105A6000002955D07F2318001040D709A27066770F
:105A70006770134253D17E3BE3704B462383E57638
:105A80002B4B4B4089064CD1AD061D43A0231B0672
:105A90002B436246002A02D0013A120413434246C5
:105AA000136001232370234B9C421FD00304334314
:105AB0001D00002F02D18025AD041D430020FFF7FB
:105AC00099FF0700300000F08BFC874202D0802352
:105AD000DB041D43A37F9B00174A944663445D602B
